:020000040800F2
:10000000880B0120D5030008CF1F0008F91E000847
:10001000CD1F0008251E0008B12A000800000000BE
:1000200000000000000000000000000015030008B0
:10003000271E000800000000710300085925000871
:10004000EF030008EF030008EF030008EF030008C8
:10005000EF030008EF030008EF030008EF030008B8
:10006000EF030008EF030008EF030008EF030008A8
:10007000EF030008EF030008EF030008EF03000898
:10008000EF030008EF030008EF030008EF03000888
:10009000EF030008EF030008EF030008EF03000878
:1000A000EF030008EF030008EF030008EF03000868
:1000B000EF030008EF030008EF030008EF03000858
:1000C000EF030008EF030008EF030008EF03000848
:1000D000EF03000821280008EF030008BD280008EE
:1000E000EF030008EF030008EF030008EF03000828
:1000F000EF030008EF030008EF030008EF03000818
:10010000EF030008EF030008EF030008EF03000807
:10011000EF030008EF030008EF030008EF030008F7
:10012000EF030008EF030008EF030008EF030008E7
:10013000EF030008EF030008EF030008EF030008D7
:10014000EF030008EF030008EF030008EF030008C7
:10015000EF030008EF030008EF030008EF030008B7
:10016000EF030008EF030008EF030008EF030008A7
:10017000EF030008EF030008EF030008EF03000897
:10018000EF030008EF03000800F002F800F0B2F8F7
:100190000AA090E8000C82448344AAF10107DA45E2
:1001A00001D100F0A7F8AFF2090EBAE80F0013F082
:1001B000010F18BFFB1A43F001031847307100000C
:1001C000507100000A444FF0000C10F8013B13F08E
:1001D000070408BF10F8014B1D1108BF10F8015BA0
:1001E000641E05D010F8016B641E01F8016BF9D193
:1001F00013F0080F1EBF10F8014BAD1C0C1B09D1EA
:100200006D1E58BF01F801CBFAD505E014F8016B5B
:1002100001F8016B6D1EF9D59142D6D370470000ED
:100220000023002400250026103A28BF78C1FBD8FF
:10023000520728BF30C148BF0B6070476E2900F0DD
:10024000EB83702900F05585662905F02A81652920
:1002500005F02781672905F024816129AFF300802B
:1002600003681B0A28BF41F08001692900F01C8146
:10027000642900F01981752900F016816F2900F0BA
:10028000E284782900F02185E92900F07D84E429C1
:1002900000F07A84F52900F07784EF2900F0DF84FC
:1002A000F82900F020850368DB0928BF41F08001B0
:1002B000632900F0EC83732900F0F183E32901F056
:1002C0001980F32901F01E80002070471FB505F04A
:1002D000E3F801F0D1F804000020002105F0B0F8A7
:1002E000401C60600020002105F0C0F8E0601FBDE8
:1002F00010B510BD01F09BF81146FFF7E7FF02F0C3
:100300009DFE01F07DF903B4FFF7F2FF03BC02F09C
:100310004EFC00002C4B19680868B0E8F04F80F3E1
:100320000988BFF36F8F4FF0000080F3118870478A
:100330000000000008480068006880F308884FF05B
:10034000000080F3148862B661B6BFF34F8FBFF32D
:100350006F8F00DF00BF00BF08ED00E0DFF80C008A
:10036000016841F470010160704700BF88ED00E052
:10037000EFF30980BFF36F8F134B1A681EF0100F55
:1003800008BF20ED108A20E9F04F106009B44FF04B
:10039000500080F31188BFF34F8FBFF36F8F04F0CD
:1003A00033FA4FF0000080F3118809BC196808681F
:1003B000B0E8F04F1EF0100F08BFB0EC108A80F3C9
:1003C0000988BFF36F8F70476C000020EFF3058042
:1003D000704700000948804709480047FEE7FEE7EC
:1003E000FEE7FEE7FEE7FEE7FEE7FEE7FEE7FEE7E5
:1003F00004480549054A064B70470000852500085A
:100400008901000888050120880B01208807012048
:1004100088070120704700001CB50C46064B7B4442
:1004200069460090204600F010FB04460020694613
:1004300000F01EFB20461CBD4F0600000FB404490F
:1004400010B503AA029800F02FFB10BC5DF814FB56
:100450005800002070B50C460546012A05D02878C2
:10046000800600D5EA69002302E0012305E05B1C59
:10047000934202D2E05C0028F9D1A869E618C01ABC
:10048000A861286A18442862284600F033FA04E07C
:10049000D5E9012114F8010B9047B442F8D328465E
:1004A00000F03EFA70BD00002DE9F0410646002440
:1004B00010687529314616A510D000F042FA0028C0
:1004C00002DA404213A507E031688A0701D512A578
:1004D00002E0490704D511A5012401E000F03AFA31
:1004E00000210A2206F1240709E0B0FBF2FCB0FB70
:1004F000F2F302FB1C00303078541846491C0028E7
:10050000F3D123462A463046BDE8F04100F02BBA2D
:10051000000000002D0000002B0000002000000063
:100520002DE9F05F894604464FF0000ADFF874B108
:10053000FB44C0F820A02046E1688847002874D01A
:10054000252806D0D4E901219047206A401C20626A
:10055000F1E700265F462046E168884720280546E7
:1005600007DB312D05D2781910F8200C08B10643AD
:10057000F1E7B00701D526F00406C4F81CA0002757
:10058000C4F818A02A2D09D0284602F009FB38B378
:1005900004EB8708303DC8F8185019E059F8041BDF
:1005A000204604EB87029161E1688847012F0546E8
:1005B00018D1E069002820DA26F020061DE0D8F8DE
:1005C000180000EB800005EB40003038C8F8180038
:1005D0002046E1688847054602F0E2FA0028EED19D
:1005E000012F0AD02E2D08D12046E16888477F1CB4
:1005F0000546022F46F02006C4DBA069002803DA76
:10060000404246F00106A061F00701D026F0100636
:100610006C2D0BD0682D09D04C2D39D06A2D35D0DA
:10062000742D35D07A2D33D016E038E0E1682F46AE
:1006300020468847B842054609D16C2F26D04FF492
:100640008060E168064320468847054604E06C2F39
:100650001AD04FF4807006430DB3A5F1410019285C
:1006600002D8203546F400664A46294620462660D0
:100670004E46FFF7E3FD80B101280BD0F61D26F0B2
:10068000070000F1080956E74020E4E78020D8E79A
:100690000020D6E706F104094DE7284652E7206A14
:1006A000BDE8F09FE469000070B5064600F01EF951
:1006B0000468054630460A22002100F025FB2C6024
:1006C00070BD0000014A00F057BB0000500300203D
:1006D000401ECAB210F8011F8A4202D00029F9D187
:1006E0000020704710B5431C02E010F8011B71B1E7
:1006F0008107FAD14FF0013202C88C1A8C4314EAF8
:10070000C211F9D0C01A0A0603D0C01E10BDC01A0B
:1007100010BD0A0401D0801E10BD0902FCD0401E8D
:1007200010BD40EA010370B59B072ED14FF0013692
:10073000042A2AD308C810C99D1B9D43121F15EA1D
:10074000C61517D0D8B2E1B2401A50EA056110D1EF
:1007500098B2A1B2401A50EA05410AD123F07F4075
:1007600024F07F41401A50EA052102D1180EA0EB77
:10077000146070BDA342DBD018BA21BA884201D9F7
:10078000012070BD4FF0FF3070BD0AB9002070BD70
:1007900010F8013B11F8014B63B1A3420AD1521E7C
:1007A00008D010F8013B11F8014B1BB1A34201D155
:1007B000521EEDD1181B70BD032A40F2308010F09C
:1007C000030C00F0158011F8013BBCF1020F6244EC
:1007D00098BF11F801CB00F8013B38BF11F8013B7D
:1007E000A2F1040298BF00F801CB38BF00F8013B2A
:1007F00011F0030300F0E282083AC0F0088051F8DB
:10080000043B083A51F804CBA0E80810F5E7121DA4
:100810005CBF51F8043B40F8043BAFF30080D207C3
:1008200024BF11F8013B11F801CB48BF11F8012B8F
:1008300024BF00F8013B00F801CB48BF00F8012BB2
:10084000704702F0FF0343EA032242EA024200F04B
:1008500002B84FF000020429C0F0128010F0030C1F
:1008600000F01B80CCF1040CBCF1020F18BF00F8A3
:10087000012BA8BF20F8022BA1EB0C0100F00DB852
:100880005FEAC17C24BF00F8012B00F8012B48BFB0
:1008900000F8012B70474FF0000200B51346944654
:1008A0009646203922BFA0E80C50A0E80C50B1F1C8
:1008B0002001BFF4F7AF090728BFA0E80C5048BFDC
:1008C0000CC05DF804EB890028BF40F8042B08BF7A
:1008D000704748BF20F8022B11F0804F18BF00F876
:1008E000012B70477047704770477047004870474A
:1008F0002805012070B5044685690068C10601D548
:10090000302600E02026C00707D070BDD4E90121C1
:1009100030469047206A401C20626D1EF6D570BD9F
:1009200070B5044685690078C00707D170BDD4E969
:10093000012120209047206A401C20626D1EF6D5C0
:1009400070BD09684A0501D540B27047C905FCD59C
:1009500000B2704709684A0501D5C0B27047C905A1
:10096000FCD580B270472DE9F0470D469946924676
:10097000044600F124080168880604D5E06921F0E6
:100980001001216000E00120A84201DD471B00E0CA
:100990000027A1697A1902EB0900081AA0612078E2
:1009A000C00602D42046FFF7A5FF002608E0D4E9E0
:1009B00001211AF806009047206A401C761C20622C
:1009C0004E45F4DB2078C0060AD52046FFF792FF9B
:1009D00006E0D4E9012130209047206A401C2062C3
:1009E000381EA7F10107F4DC07E0D4E9012118F86B
:1009F00005009047206A401C2062281EA5F10105D1
:100A0000F3DC2046FFF78CFF2078000602D5022099
:100A1000BDE8F0870120FBE711680268006A530512
:100A200001D508700AE0D30501D5088006E0130659
:100A300003D5C217C1E9000200E008600120704739
:100A400001694A1C02610878704700B58FB0CDE992
:100A500001310021059105497944CDE90310114682
:100A60006846FFF75DFD0FB000BD0000E5FFFFFF2A
:100A70000A6802F8010B0A60704710B5436913B1A8
:100A8000AFF3008001E0FFF7E5FC012010BD127814
:100A900000F124010A7000224A700122EDE711687A
:100AA0004FF0FF32E9E70000074B70B50D467B447D
:100AB000FFF7CBFF0446284600F077FC10B14FF05B
:100AC000FF3070BD204670BDD32400002DE9FF5FCC
:100AD00015468A460446DFF8AC80F8440027D8E97A
:100AE00000103E46CDE9001010E03AF816106A46B4
:100AF00002A800F05EFC411C07D02178890603D5CE
:100B0000E269391891420DD80744761C2078800696
:100B100002D5E069B84205DDAE42E6DB3AF81600E0
:100B20000028E2D1A069C01BA0612046FFF7E2FEC9
:100B3000D8E90010CDE90010002017E03AF81810AD
:100B40006A4602A800F035FCB0F1FF3F81460BD0A9
:100B500000250DF1080B05E0D4E901211BF8050083
:100B600090476D1C4D45F7D308F10100B042804617
:100B7000E4DB206A384420622046FFF7D1FEBDE85E
:100B8000FF9F00004E6400002DE9F0418046D21D19
:100B900022F007020025D2E90002F52915A614D09B
:100BA000011E72F1000106DA0023D0EB030063EBB3
:100BB000020211A608E0D8F800108B0701D50FA695
:100BC00002E0490701D50EA601251146002408F1CF
:100BD000240704E000F030F930323A55641C50EA42
:100BE0000102F7D12B46324621464046BDE8F0418E
:100BF000FFF7B9BE000000002D0000002B00000030
:100C00002000000030B4002100F1240408E002F0CC
:100C10000705D208303542EA4372DB086554491CA7
:100C200052EA0305F3D10468002310A2250707D573
:100C3000A40600D421B1C46901230DA2641EC461BD
:100C400030BCFFF790BE10B5044621461068FFF790
:100C500081FE02462046BDE810400023D2E7D21DA7
:100C600022F00701D1E90023CCE7000000000000DA
:100C700030000000F0B40D460188090502D5214C72
:100C80007C4402E01F4C7C440E34002100F1240619
:100C900008E002F00F071209E75D42EA03721B0940
:100CA0007754491C52EA0307F3D102780023120754
:100CB00004D5702D06D009B1022311342246F0BCB0
:100CC000FFF751BE01231034F8E770B504460D4616
:100CD00021461068FFF73EFE024629462046BDE841
:100CE00070400023C6E7D21D22F00703D3E900239A
:100CF000C0E70368126843F0200303600823C36160
:100D00000023B7E7B06200002DE9F04791460F4697
:100D100080460446002614F8015B2DB100F084F8EB
:100D20000068405DC007F6D12B2D02D02D2D18D0C4
:100D3000641E4A463946204600F0E8FA27B1396871
:100D4000A14201D1C7F800804FF0020471050BD514
:100D50004042002803DDFFF7C9FD0460A007BDE89D
:100D6000F08746F48066E4E70028F8DAFFF7BEFD76
:100D700004606FF00040F2E72DE9F04115460E46A1
:100D8000040002D12C6804B90BA4204600F041FBFA
:100D90000444207870B127463146384600F029FBDC
:100DA0000444207810B1002004F8010B38462C6070
:100DB000BDE8F0810027F9E70000000010B5203AF7
:100DC000C0F00B80B1E81850203AA0E81850B1E804
:100DD0001850A0E81850BFF4F5AF5FEA027C24BFBA
:100DE000B1E81850A0E8185044BF18C918C0BDE8B1
:100DF00010405FEA827C24BF51F8043B40F8043B7A
:100E000008BF7047D20728BF31F8023B48BF11F82E
:100E1000012B28BF20F8023B48BF00F8012B704788
:100E2000004870472805012010B500F025FB001D83
:100E300010BD00BF0D46000030B5B0F10A024FEA08
:100E4000900E71F100034EEA817EB0EB0E0061EB73
:100E500091014FEA101E4EEA017E10EB0E0041EBAD
:100E600011114FEA102E4EEA016E10EB0E0041EB0D
:100E700011214FEA104E4EEA014E10EB0E0041EBED
:100E80001141401841F100014FEAD00040EA4170A1
:100E90004FEAD10110EB80054FEA810444EA9074D7
:100EA00044EB01046D1944EB0404521BA3414FF0C1
:100EB000000348BF0A3200D530BD401C41F100019B
:100EC00030BD70472DE9FF4F0C461E464FF0FF37EF
:100ED0008BB0D2E90001DDF860800A908A46C1F348
:100EE0000A5505B93D46002108464FF00000BAF109
:100EF000000F00F4400005DA00EB80004FF44001E1
:100F000001EA50004FEA9059B9F1010F00DDB946EE
:100F10000A9850EA4A000ED044F61050A5F2FF3568
:100F200045432F14B8F1000F1ED07542291E1EDD57
:100F3000C9F100021CE0B8F1010F4FF0000001D030
:100F4000302103E0F24305E02154401CB042FBDBBA
:100F500030460022002121540B99C1F80880C1E9D4
:100F600000200FB0BDE8F08FBD1B6D1CDEE74A46C8
:100F700000DA694206A800F0D1FA06AB93E8070050
:100F800003AB83E8070050460A9900F083FB8DE825
:100F90000700A0F500501F3800900398002D0ADDCF
:100FA00042F21F014A460844002303A90390684601
:100FB00000F0ECFD09E0A0F500504A461F38002380
:100FC00003A90390684600F0F6FD8DE807000004D1
:100FD000000C03D04FF0FF30410800E01046B8F19C
:100FE000000F03D00022009215461EE0751E05D4A6
:100FF000FFF722FF303262556D1EF9D5B34601224C
:10100000084302D000227F1C04E02078302801D160
:1010100000227F1E002A099784D01DE0112D07DAD7
:10102000FFF70AFF303262556D1C50EA0102F5D11C
:10103000084302D00098C8B10EE00021681E05E008
:10104000235C625C63542254401E491C8142F7DBDE
:10105000AB46A81B401E0990002004F80B000B981B
:10106000099AC0F80880C0E9002B7AE711264FF0F2
:10107000000857E72DE9F04F88460446D21D22F0BC
:10108000070191B0D1E90001CDE90A0101F070FD3D
:1010900002460B98C00F01D02D2007E02068810781
:1010A00001D52B2002E0202101EAC000032A09908B
:1010B00001D0072A05DB03464146204600F0E0F94F
:1010C0000BE12078800601D5E06900E00620B8F148
:1010D000650F814606D0B8F1660F18D0B8F1670FDA
:1010E00070D131E00020B9F1110F009001DB112324
:1010F00001E009F101030AAA01A90CA8FFF7E2FE29
:10110000DDE90C70002609F10105834647E0012066
:101110004B4600904FF000470AAA01A90CA8FFF720
:10112000D1FEDDE90DB00C995D46002610B909F13C
:1011300001000D18B9EB050003D4C0F1FF3609F129
:101140000105A5EB09002BE0B9F1010F01DA4FF021
:1011500001090020B9F1110F0090484601DD11236B
:1011600000E003460AAA01A90CA8FFF7ABFEDDE9DF
:101170000C704D4600268346207800070AD4AB4504
:1011800000DA5D4601A8012D04DD411911F8011CAA
:10119000302907D04F4502DA17F1040F04DA012095
:1011A00082460FE06D1EEEE7002F02DCED1B3E4491
:1011B00003E0781CA84200DD7D1CB81B00F1010A89
:1011C0004FF000472078000703D4AA4501DB4FF019
:1011D000FF3A0021B7F1004F0DF143088DF843109D
:1011E00024D002202B23002F01DA7F422D230A2155
:1011F000021EA0F1010000DC5FB197FBF1FC97FB40
:10120000F1F201FB1C7C17460CF1300C08F801CD03
:10121000EEE7A8F1010003702188090501D54521F9
:1012200000E06521A0F1010800F8011C09980FA950
:10123000A1EB0807FF1D00B10120411901EBEA7085
:10124000A1693844081A401EA0612078C00602D463
:101250002046FFF74FFB099828B1D4E901219047B8
:10126000206A401C20622078C00622D52046FFF765
:1012700041FB1EE0002E04DBB34502DD01A8805DCA
:1012800000E03020D4E901219047206A401C206210
:10129000761CAAF101005FEA000A0AD100F0ECF81E
:1012A000C0680168405CD4E901219047206A401C75
:1012B0002062281EA5F10105DCDC07E0D4E901214C
:1012C00018F8010B9047206A401C2062381EA7F1D5
:1012D0000107F3DC2046FFF723FB032011B041E6B2
:1012E00010B5436913B1AFF3008001E0FFF7EEFBE7
:1012F000012010BD128800F1240182840022C284E2
:101300000122EDE711684FF0FF32E9E72DE9F05FC8
:10131000824615468B4600270AF10104B94600783B
:10132000302801D09DB113E014F8010B0127782873
:1013300003D0582801D045B10AE00DB1102D07D1D6
:10134000002714F8010B102502E0082500E00A250B
:101350000026B0460EE005FB080005FB06F101275C
:101360001FFA80F801EB1046B6F5803F00D3B9466E
:1013700014F8010B294600F0C3F80028EBDABBF1A2
:10138000000F05D00FB1641E00E05446CBF80040BA
:10139000B9F1000F06D0FFF7A9FA02210160C81EBB
:1013A000BDE8F09F48EA0640FAE7007B00F08000C5
:1013B000704770B516460C460546FFF735FD0368C5
:1013C00093F80101012806D0FF2C0FD8185D68B1F1
:1013D00001202C7070BDD3F807013246214603F27C
:1013E000071303442846BDE8704018474FF0FF300C
:1013F00070BD30B503461D781DB10A4603E0AC420E
:1014000001D1181A30BD12F8014B002CF7D15B1C2A
:10141000F1E730B503461D783DB10A4612F8014B9D
:101420001CB1AC42FAD15B1CF5E7181A30BD754609
:10143000FFF7F6FCAE4605006946534620F007006C
:10144000854618B020B5FEF7D3FFBDE820404FF029
:1014500000064FF000074FF000084FF0000B21F09E
:101460000701AC46ACE8C009ACE8C009ACE8C0096B
:10147000ACE8C0098D467047004870474805012018
:101480002DE9F0411F46044603260168072A01F4AE
:10149000006004DB08B116A505E016A503E008B15D
:1014A00015A500E015A521F010002060A069C01E60
:1014B000A0610FB1401EA0612046FFF71BFA4FB19B
:1014C000D4E9012138469047206A401C2062C01CA4
:1014D000206206E0206AFAE7D4E9012115F8010B41
:1014E0009047761EF8D22046FFF71AFABDE8F08141
:1014F0004E414E006E616E00494E4600696E6600B8
:101500003A2800D2303820F02002412A01D3A2F13B
:101510003700884201D34FF0FF3070472DE9F04784
:10152000814616468AB0354878440DC88DE80D00CE
:1015300032487844801C03AC0DC884E80D0041F6A5
:101540009B300844372190FBF1F290FBF1F5A5F1B7
:10155000800501FB12041B3C02D56442012000E01F
:101560000020DFF898A080460027FA44AAF1BE0ABE
:101570000EE0E0070AD03246684607EB4701012338
:101580000AEB810100F017FB8DE8070064107F1C57
:10159000002CEED1194F7F44AE3F19E0E80715D07B
:1015A00007EB04100DF1180A90E80E008AE80E000F
:1015B000C068F04201D1981908903246012306A96B
:1015C00003A800F0F8FA03AB83E807006D10641C71
:1015D000002DE3D14FF0010332466946B8F1000F08
:1015E00003A802D000F0D2FA01E000F0E4FAC9E961
:1015F0000001C9F808200AB0BDE8F087AC5A000025
:1016000010B50446AFF300802046BDE81040FEF759
:101610007ABE00004FF0013C50F8042B51F8043B17
:101620009A4221D1A2EB0C03934313EACC1317D1B6
:1016300050F8042B51F8043B9A4215D1A2EB0C034D
:10164000934313EACC130BD150F8042B51F8043B0D
:101650009A4209D1A2EB0C03934313EACC13DBD0DB
:101660004FF00000704700BFD01A01BAB1FA81F103
:1016700001F0180122FA01F0CB40C1F12001DBB2E8
:10168000C0B2C01A2CFA01F3D11A914311EAC31166
:10169000E6D170475FEA400C08BF91F0000F4FEAB7
:1016A0008C234FEAC12243EA51514FEA1C5018BF24
:1016B00000F5F0404FEA300018BF41F000415FEA0A
:1016C0006C5C00F02980BCF1FF3F08BF40F0804017
:1016D0007047130C06BF12044FF0100C4FF0000CB3
:1016E000130E04BF12020CF1080C130F04BF1201F9
:1016F0000CF1040C930F04BF92000CF1020CD30FF9
:1017000004BF52000CF1010C11464FF00002A0F191
:101710001F00A0EB0C00704711F0004F08BF70478E
:1017200031F000413FF4D5AF0B0C06BF09044FF078
:10173000100C4FF0000C0B0E04BF09020CF1080C4A
:101740000B0F04BF09010CF1040C8B0F04BF8900BF
:101750000CF1020CCB0F04BF49000CF1010CCCF1D1
:101760002003A0EB0C0022FA03F302FA0CF241EA88
:10177000030100F10100704720F07F4C80EA030074
:1017800023F07F47ACEB070303F57C5300F00040E8
:1017900003F1FF032DE980494FEA154B09B44FEAE5
:1017A000144325EA0B4E24EA03480FF2042606EB05
:1017B000132749083E785FEA320203FB0667C7F544
:1017C000000707FB06F64FEA54374FEAD64606F104
:1017D000020607FB066CCCF1005C4FEA1C472CEAC2
:1017E000074C07FB06F40CFB06F504EB15464FEA25
:1017F000961634BF00204FF000404FEAD13706FB69
:1018000007FC4FEA1C4C0CFB0BF7D21B03FB0CF73D
:1018100061EB07010CFB0EF7B0EB074072EB1742D0
:101820000CFB08F734BFA2EB0742B2EB074261EBB7
:1018300017414FEA0C444FEA910706FB07FC4FEAB9
:101840001C4C0CFB0BF7B0EBC74072EB573203FBA1
:101850000CF734BFA2EBC742B2EBC74261EB573182
:101860000CFB0EF7B0EBC70072EB57720CFB08F7DE
:1018700034BFA2EBC702B2EBC70261EB5771039F03
:101880004FEA816141EA921104EBCC044FEAD1376F
:101890004FEA826206FB07FC42EA90124FEA806040
:1018A0004FEA1C4C0CFB0BF7D21B03FB0CF761EB54
:1018B00007010CFB0EF7B0EB074072EB17420CFB75
:1018C00008F734BFA2EB0742B2EB074261EB1741C6
:1018D0004FEA8C554FEA910704EB9C2406FB07FC6A
:1018E0004FEA1C4C0CFB0BF7B0EBC74072EB5732C6
:1018F00003FB0CF734BFA2EBC742B2EBC74261EB6C
:1019000057310CFB0EF7B0EBC70072EB57720CFBB4
:1019100008F734BFA2EBC702B2EBC70261EB577105
:1019200015EB4C254FEA816141EA92114FEA826240
:101930004FEAD13742EA901206FB07FC44F100045B
:101940004FEA80604FEA1C4C0CFB0BF7D21B03FBE9
:101950000CF761EB07010CFB0EF7B0EB074072EBE5
:1019600017420CFB08F734BFA2EB0742B2EB074269
:1019700061EB174115EB1C154FEA813141EA9241A9
:101980004FEA823242EA90424FEA80304FEA0C76C8
:1019900044F1000448EA03434EEA0B484FF0000EBE
:1019A000B2EB080C71EB030724BF624639464EEBDD
:1019B0000E0E4FF0000B0018524149414BEB0B0B40
:1019C000B2EB080C71EB03077BF1000B24BF6246FE
:1019D00039464EEB0E0E4FF0000B001852414941B4
:1019E0004BEB0B0BB2EB080C71EB03077BF1000B1D
:1019F00024BF624639464EEB0E0E51EA020718BF6D
:101A000046F0010616EB0E7655F1000254F1000186
:101A100003D5BDE88901BDE80088BDE88901BDE8BE
:101A20000048B619524141EB0101A3F1010370478F
:101A300080807F7E7D7C7B7A79787776767574730B
:101A4000727171706F6E6E6D6C6C6B6A6A696868CA
:101A5000676666656464636362616160605F5F5E60
:101A60005E5D5D5C5C5B5B5A5A59595858575756D6
:101A7000565555555454535352525251515050503B
:101A80004F4F4F4E4E4D4D4D4C4C4C4B4B4B4A4A8D
:101A90004A494949484848474747474646464545D1
:101AA000454444444443434343424242424141410A
:101AB000002B9C4630D477002BD01CB54FEA37075B
:101AC00003B44FF010004FF01001BAF1000F06D030
:101AD000BCF1000FDCBF40F0080040F008014FF0FF
:101AE00000000FBCBDE810400BF1010BBBF1010F72
:101AF00008BF5FEA170722BF12F1010211F10101CD
:101B00004FF0004143F1000300F0004043EA0000C1
:101B10007047F9D35708D0E746EA064613F1400F5D
:101B20004FEA16461FDD13F1200FDFBF16430A46AA
:101B3000002120335B42BED0C3F1200746EA0646AF
:101B400002FA07F74FEA164646EA0706C3F12007EE
:101B500022FA03F201FA07F721FA03F14FF000032A
:101B600042EA0702A7E746EA020646EA06464FEAC5
:101B7000164646EA0106BCBF46EA0646360C4FF05A
:101B800000034FF000024FF0000194E72DE9804C74
:101B90009A46934670B491E8380007C831EA400C81
:101BA00048BF34EA430C03D5FFF7E6FDFFF780FF9B
:101BB000F0BCBDE8008C2DE9804C9A46934670B489
:101BC00091E8380007C810F0804F08BF13F0804F2D
:101BD00003D100F005F8FFF76BFFF0BCBDE8008C07
:101BE00020F07F4780EA030023F07F4C07EB0C03D3
:101BF000A3F57C5300F00040A3F1FE0392F0000F28
:101C000000F0B38095F0000F00F077802DE90149D6
:101C10004FEA11404FEA144621EA004800FB06FC57
:101C200024EA064708FB06F607FB08F800FB07F75F
:101C300018EB06484CEB164C4FEA124B18EB0748D2
:101C40004FEA15464CEB174022EA0B4E0BFB06FC05
:101C500025EA06470EFB06F607FB0EFE0BFB07F711
:101C60001EEB064E4CEB164C4FF000061EEB074EDB
:101C70004CEB174B18EB0B0840F1000018EB0E0B68
:101C800058EB000840F100008F1A4FF000013CBFF4
:101C9000C943661B14BFB5EB040C00213CBFC9430C
:101CA000F61B4FEA17444EEA8E0E27EA04454FEA28
:101CB0001C4704FB07622CEA074C05FB07F70CFBEB
:101CC00005F604FB0CFC16EB074642EB174216EB3D
:101CD0000C4642EB1C421BEB060658EB020241414C
:101CE00046EA9E0601D5BDE80189B619524141EB8D
:101CF0000101A3F10103BDE801894FEA14454FEA50
:101D0000114724EA054621EA074C05FB07F406FBC8
:101D100007F70CFB06F105FB0CFC11EB074144EB4C
:101D200017444FEA124711EB0C4144EB1C4422EAE2
:101D3000074C05FB07F206FB07F70CFB06F605FB55
:101D40000CFC16EB074642EB174216EB0C4642EB37
:101D50001C456A1854F1000148BF7047B61952413A
:101D600041EB0101A3F10103704795F0000F37D05B
:101D70004FEA11424FEA144721EA024624EA074C8F
:101D800002FB07F106FB07F70CFB06F402FB0CFC59
:101D900014EB074441EB17414FEA154714EB0C4491
:101DA00041EB1C4125EA074C02FB07F506FB07F750
:101DB0000CFB06F602FB0CFC16EB074645EB174541
:101DC00016EB0C4645EB1C42121951F1000148BFBD
:101DD0007047B619524141EB0101A3F1010370476D
:101DE0004FEA14454FEA114724EA054621EA074C19
:101DF00005FB07F106FB07F70CFB06F24FF00006A8
:101E000005FB0CFC12EB074241EB174112EB0C42B5
:101E100051EB1C4148BF7047921841EB0101A3F1FF
:101E200001037047FEE7704770B50B4E054600246E
:101E300028787F2801D9022200E0012256F82400E8
:101E40002946FEF76EFC28B1641C9C2CF0D34FF0A1
:101E5000FF3070BD204670BDE0000020F0B50022CC
:101E600001274FF0030C0B6807FA02F52B40AB4239
:101E70002CD1066853000CFA03F4A64306600E79D1
:101E8000D0F800E09E4046EA0E0606600E79012E6C
:101E900001D0022E12D18668A64386604E79D0F812
:101EA00008E09E4046EA0E0686604668AE434660FD
:101EB00045688E799640B6B235434560C568A543FE
:101EC000C560CC799C40C3681C43C460521C102A76
:101ED000C9D3F0BD4B07DB0E9A40C90810B500EB23
:101EE0008100016A0F249C40A1430162016A1143F1
:101EF000016210BD01837047FEE7000070B50C4D14
:101F00000120C5F8BC020B4EC6F8A80205F52F75D6
:101F100006F52A7600F04EFE00243460012000F021
:101F200049FE2C60BDE87040012000F043BE000077
:101F3000008040420080414270B509480124C0F849
:101F4000BC42084D0020C5F8A802204605F52A75B8
:101F500000F030FE2C60BDE87040012000F02ABE89
:101F6000008040420080414210B5074C0120C4F877
:101F7000BC0204F52F7400F01DFE00202060BDE8B7
:101F80001040012000F016BE008040427CB50121C7
:101F9000202000F07BF901208DF8040000228DF84C
:101FA000062003218DF80510074D4FF4C0648DF80D
:101FB0000700009469462846FFF750FF214628464F
:101FC000FFF798FF7CBD000000140240FEE7704759
:101FD00030B50F23C27801780125FAB1144A12688E
:101FE00001F1E02102F4E062C2F5E062C2F30722EF
:101FF000C2F10404D3404278A24084781C401443C8
:10200000220181F80024007800F01F018D40400972
:10201000800000F1E020C0F8005130BD01F01F0049
:1020200085404809800000F1E020C0F8805130BDB3
:102030000CED00E0024908430249086070470000C7
:102040000000FA050CED00E070B50025002105F157
:10205000B00000F015F90021084600F011F9002148
:10206000102000F00DF900240121002000F008F9F3
:10207000641CE4B2802CF7D36D1CEDB2082DE5D3BF
:1020800070BD2DE9F0471F4690460E46824600255A
:10209000DDF8209012E03146504600F0B5F8544685
:1020A00008E019F805000121C0436D1C00F0E8F8B4
:1020B000641CE4B24445F4D3761CF6B2BE42EAD3C3
:1020C000BDE8F0877CB501210A2000F0DFF801258A
:1020D0008DF8045000244FF400408DF80540009026
:1020E0008DF806408DF8074069464348FFF7B6FE75
:1020F0008DF80450A8028DF8054000908DF8064038
:102100008DF8074069463D48FFF7A8FE3C48C0F8F7
:10211000BC523C48C0F8A852C82000F049FD00213C
:10212000AE2000F0ADF80021084600F0A9F800212B
:10213000102000F0A5F80021402000F0A1F80021B7
:10214000B02000F09DF80021812000F099F80021D6
:10215000FF2000F095F80021A12000F091F8002167
:10216000A62000F08DF80021A82000F089F80021B9
:102170003F2000F085F80021C82000F081F8002100
:10218000D32000F07DF80021084600F079F8002106
:10219000D52000F075F80021802000F071F80021B2
:1021A000D82000F06DF80021052000F069F800212A
:1021B000D92000F065F80021F12000F061F800213D
:1021C000DA2000F05DF80021122000F059F800211B
:1021D000DB2000F055F80021302000F051F80021FC
:1021E0008D2000F04DF80021142000F049F8002166
:1021F000AF2000F045F87CBD00040240000C024016
:10220000008040420080414210B50A460446002149
:1022100002F1B00000F034F8102040EA1410002160
:1022200000F02EF804F00F00BDE81040002100F08F
:1022300027B800002DE9F04115460E460746FFF786
:10224000E3FF0E48002400EB45150121285D00F056
:1022500017F8641CE4B2102CF7D3761CF1B23846A0
:10226000FFF7D2FF10240121285D00F009F8641C5B
:10227000E4B2202CF7D3BDE8F081000098550008A7
:10228000C0B209B100F05DBC00F044BC044A0029B2
:10229000116801D0014300E08143116070470000E4
:1022A00030380240044A0029116801D0014300E09F
:1022B000814311607047000040380240044A002901
:1022C000116801D0014300E08143116070470000B4
:1022D0004438024070B5204B1968204C11F00C01B5
:1022E00004D06610042903D0082903D004601BE041
:1022F000066019E0184A121F1168C1F38055116871
:1023000001F03F0115B1B6FBF1F101E0B4FBF1F1D1
:1023100014681268C4F388146143C2F30142521C6A
:102320005200B1FBF2F1016019680F2202EA1111AB
:102330000B4A545C0168E14041601C68072505EACE
:102340009424145D21FA04F484601B6805EA533375
:10235000D25CD140C16070BD083802400024F40056
:102360005C00002030B58BB001210420FFF78EFF08
:1023700001210220FFF796FF4FF4607005900220C4
:102380008DF8180003208DF819000024284D8DF8D1
:102390001A408DF81B4005A92846FFF75FFD022271
:1023A00007212846FFF796FD022208212846FFF75D
:1023B00091FD022209212846FFF78CFD44F61F609B
:1023C00008905320ADF81C001A4DADF82440ADF82C
:1023D0001E4007A9284600F0E5F96021ADF800107D
:1023E0000120ADF80200ADF80C406946284600F027
:1023F0000BF96946284600F051F96946284600F075
:1024000091F90821284600F03FF90821284600F0FC
:1024100083F90821284600F0B5F90121284600F08B
:10242000DFF80121284600F0E5F80BB030BD0000D0
:102430000008024000040040B42800D9B4204FF442
:10244000E16110FB01F0B421B0FBF1F000F5167072
:1024500081B2014800F0A0B900040040B42800D9BE
:10246000B4204FF4E16110FB01F0B421B0FBF1F0B6
:1024700000F5167081B2014800F090B900040040E8
:10248000B42800D9B4204FF4E16110FB01F0B4216D
:10249000B0FBF1F000F5167081B2014800F080B990
:1024A000000400400CB50022274900920192086800
:1024B00040F4803008604FF4A043086800F4003016
:1024C00001900098401C0090019810B90098984223
:1024D000F3D10868800334D5012001901A484030B8
:1024E000026842F0805202601848026842F440429A
:1024F00002601548083002680260026842F4004237
:102500000260026842F4A0520260031F104A1A607F
:102510000A6842F080720A600A689201FCD50D498F
:1025200040F205720A60016821F003010160016850
:1025300041F0020101600168C1F381010229FAD171
:102540000CBD01920CBD000000380240007000403C
:1025500008544007003C024010B5502080F3118819
:10256000BFF34F8FBFF36F8F02F080FD18B10449A6
:102570004FF080500860002080F3118810BD0000EB
:1025800004ED00E0124810B5016841F470010160EB
:102590001048016841F0010101600E4A0021083233
:1025A000116002680C4B1A400260031D0B4A1A604E
:1025B000026822F48022026006480C300160FFF7B6
:1025C00071FF03494FF000608039086010BD0000C2
:1025D00088ED00E000380240FFFFF6FE10300024D6
:1025E0000029018802D041F0800101E021F0800142
:1025F000018070470029018802D041F0010101E00B
:1026000021F001010180704770B5028C22F01002A8
:102610000284028C8388048B0D8824F4E6464FF6EE
:10262000FF7404EA052535438E8922F0200204EA6E
:10263000061616434A8804EA02123243104EB0428C
:1026400002D0104EB04215D122F08006CA8923F480
:10265000406304EA0212324322F040068A8804EA08
:10266000021232430E8A04EA86061E434B8A04EAAB
:10267000830333438380058389688163028470BD4B
:102680000000014000040140028B4FF6FF7322F46A
:10269000006203EA012111430183704770B5028C87
:1026A00022F480720284028C8388848B0D8824F04B
:1026B000730425438E894FF6FF7422F4007204EAF6
:1026C000062616434A8804EA02223243104EB042DC
:1026D00002D0104EB04215D122F40066CA8923F40C
:1026E000405304EA0222324322F480668A8804EAD4
:1026F000022232430E8A04EA06161E434B8A04EA7B
:1027000003133343838085838968C163028470BD6A
:102710000000014000040140828B22F008020A43BD
:102720008283704770B5028C22F480520284058C3B
:102730008288838B0C8823F4E6464FF6FF7303EA06
:102740000424344325F400568D8903EA05353543C6
:102750004E8803EA06362E43084DA84202D0084DA3
:10276000A84205D122F480450A8A03EA82122A434C
:102770008280848389680164068470BD0000014002
:1027800000040140828B4FF6FF7322F4006203EADB
:10279000012111438183704781637047C163704792
:1027A0000164704730B50288164C174DA0420DD019
:1027B000A8420BD0B0F1804F08D0144B984205D0FE
:1027C000134B984202D0134B984203D122F070036E
:1027D0004A881A43104B984206D0104B984203D0B7
:1027E00022F440730A891A4302804A68C2620A8846
:1027F0000285A04201D0A84201D1897A0186012137
:10280000818230BD0000014000040140000400400E
:1028100000080040000C0040001000400014004080
:10282000F8B5214E002540F225573946304600952F
:1028300000F0A9F81D4C78B12088202808D2304635
:1028400000F02EF901461A4A20881154401C2080BD
:102850003946304600F080F840F224473946304689
:1028600000F091F800281DD0304600F019F9114809
:1028700000236A460E49006802F0C0F92580202135
:102880000B48FDF7E6FF3946304600F065F8009842
:10289000002807D008494FF080500860BFF34F8FE1
:1028A000BFF36F8FF8BD00000010014054000020FE
:1028B000540300202C00002004ED00E0F8B5214E68
:1028C000002540F2255739463046009500F05BF868
:1028D0001D4C78B16088202808D2304600F0E0F81E
:1028E00001461A4A60881154401C608039463046BF
:1028F00000F032F840F224473946304600F043F801
:1029000000281DD0304600F0CBF8114800236A465D
:102910000E49006802F072F9658020210B48FDF72E
:1029200098FF3946304600F017F80098002807D085
:1029300008494FF080500860BFF34F8FBFF36F8F8F
:10294000F8BD00000048004054000020740300203F
:102950002C00002004ED00E00A0A01219140C94347
:10296000018070470029818902D041F4005101E0C3
:1029700021F40051818170470246002012880A42EA
:1029800000D00120704770B501F01F05012600241A
:10299000C1F3421306FA05F2012B0FD0022B0FD020
:1029A000838A4FEA11210088134206FA01F600EAF1
:1029B000060001D000B10124204670BD8389F0E7F4
:1029C000038AEEE710B5C1F3421301F01F040121A1
:1029D000A140012B07D0022B07D01430002A026837
:1029E00005D00A4304E00C30F8E71030F6E78A43DC
:1029F000026010BD7FB50446008A0D46C98820F4E8
:102A0000405001432182A08941F20C618843A9888A
:102A10002A8911436A8902431143A181A08A20F4C3
:102A20004071A8890843A0826846FFF753FC1A4802
:102A3000844202D01948844201D1039800E00298F0
:102A4000A189090400EBC00101EB0010296801D540
:102A5000490000E08900B0FBF1F06422B0FBF2F124
:102A600009010B096FF018056B4300EB8300A38984
:102A70001D044FF0320306D503EBC000B0FBF2F0AB
:102A800000F0070005E003EB0010B0FBF2F000F0EF
:102A90000F00084320817FBD001001400014014059
:102AA0008088C0F308007047C1F308018180704737
:102AB000FEE700002DE9F047144D00268146C5F8D9
:102AC000BC62134FC7F8A862012000F073F8072416
:102AD000A846012505FA04F010EA090F02D0C7F84C
:102AE000A85201E0C7F8A862012000F063F8C8F816
:102AF000BC52012000F05EF8C8F8BC62012000F072
:102B000059F8641EE6D5BDE8F08700000080404219
:102B10000080414210B50446FFF7F0F97820FFF736
:102B2000C9FFFFF721FA0020FFF7C4FFFFF71CFAE7
:102B30002046FFF7BFFFFFF717FABDE81040FFF789
:102B4000FBB910B50446FFF7D9F97820FFF7B2FFBB
:102B5000FFF70AFA4020FFF7ADFFFFF705FA20461E
:102B6000FFF7A8FFFFF700FABDE81040FFF7E4B950
:102B700003B401984100009850EAC12018BF042016
:102B80004A0D18BF40F0010040F2FF72B2EB515FF6
:102B900008BF40F00200012808BF052002B07047BE
:102BA00030380A2801D20120704700207047704752
:102BB00001F0D6BC2DE9F0414FF0E0280024D8F810
:102BC00014700E4A0E4BD8F818501268B2FBF3F688
:102BD000464301F011FE41468869A842FCD002D26A
:102BE000A5EB000202E0A7EB00022A4414440546CC
:102BF000B442F1D3BDE8F04102F068BB40000020D0
:102C000040420F002DE9F0410025284600F0A4F9CC
:102C100007240D4F01264FF00008C7F8A0620520D9
:102C2000FFF7C8FFD7F8240218B106FA04F02843CA
:102C3000C5B2C7F8A0820520FFF7BCFF641EECD523
:102C40002846BDE8F0810000008040422DE9F041B7
:102C50000746012000F080F90F4C0025C4F8A0526F
:102C6000C4F8A4520520FFF7A5FF012617B1C4F848
:102C7000A45201E0C4F8A4620520FFF79BFFC4F84A
:102C8000A0620520FFF796FFC4F8A052BDE8F0410E
:102C90000520FFF78FBF0000008040422DE9F04182
:102CA0008046012000F058F9114E0027C6F8A072A6
:102CB000C6F8A4720520FFF77DFF0724012505FA59
:102CC00004F010EA080F02D0C6F8A45201E0C6F8DA
:102CD000A4720520FFF76EFFC6F8A0520520FFF78B
:102CE00069FFC6F8A072641EE9D5BDE8F081000056
:102CF0000080404210B5012000F02EF9084C012060
:102D0000C4F8A002C4F8A402052004F52874FFF753
:102D100051FF00206060BDE810400520FFF74ABF6A
:102D20000080404270B5012000F016F9084C0125E2
:102D3000C4F8A0520020C4F8A402052004F52874A9
:102D4000FFF738FF6560BDE870400520FFF732BF30
:102D50000080404270B50024204600F0FDF8094D87
:102D60000120C5F8A0020520FFF724FFD5F82402B2
:102D700000B901240020C5F8A0020520FFF71AFFC2
:102D8000204670BD008040421CB501210220FFF7A3
:102D90007DFA4FF44070012400908DF8044000202B
:102DA0008DF805008DF806408DF807006946044847
:102DB000FFF754F80348C0F8A042C0F8A4421CBD75
:102DC000000402400080404270B515460C4606469D
:102DD000FFF790FFA020FFF761FFFFF7BBFF30B1C7
:102DE0003046FFF75BFFFFF7B5FF30B112E011A0EF
:102DF000FDF724FB4FF0FF3070BD14A0FDF71EFB64
:102E00006FF0010070BD14F8010BFFF747FFFFF7EB
:102E1000A1FF48B16D1EEDB2F5D2FFF783FF10A000
:102E2000FDF70CFB002070BD13A0FDF707FB6FF052
:102E3000020070BD646576696365206164647265D3
:102E40007373206661696C0D0A000000776F72640D
:102E50002061646472657373206661696C0D0A0099
:102E6000777269746520646174612073756363654A
:102E700073730D0A00000000777269746520646145
:102E80007461206661696C0D0A00000070B515461A
:102E90000C460646FFF72EFFA020FFF7FFFEFFF7C8
:102EA00059FF80B13046FFF7F9FEFFF753FF80B1BD
:102EB000FFF720FFA120FFF7F1FEFFF74BFF70B1F6
:102EC0006D1EEDB218E014A0FDF7B8FA4FF0FF3018
:102ED00070BD17A0FDF7B2FA6FF0010070BD0EA033
:102EE000FDF7ACFA6FF0020070BDFFF78BFE04F83F
:102EF000010B0120FFF7AAFE6D1EEDB2F5D2FFF720
:102F000081FE20700020FFF7A1FEFFF70BFF0DA050
:102F1000FDF794FA002070BD6465766963652061F1
:102F2000646472657373206661696C0D0A00000049
:102F3000776F72642061646472657373206661697F
:102F40006C0D0A00726561642064617461207375A0
:102F500063636573730D0A001CB54FF400718DF83F
:102F60000400009100208DF8050001218DF8061065
:102F70008DF8070069460248FEF770FF1CBD00008F
:102F80000004024003490A885206FCD5C2B28A8076
:102F900070470000001001402DE9F041194D002458
:102FA0000120C5F898020F2005F52675FFF702FEEF
:102FB00000202860471E4EF66026134D05E00120D4
:102FC000641CFFF7F7FDB4420DD8D5F820020028A5
:102FD000F5D0002441F2707608E00A20641CFFF767
:102FE000E9FDB44202D93846BDE8F081D5F82002A7
:102FF0000128F2D004EB840040003A21B0FBF1F04C
:10300000F2E70000000042420000404210B54FF4D9
:103010001654204601F01CF9204601F0BBF8FEF7DB
:10302000B5FFFFF74FF8FFF79DF900F0E1FCFFF760
:10303000ABFEBDE8104000F005BD00001CB54FF42C
:103040004070FEF7F7FF07490120CDE90001820239
:10305000002305A1074801F0C9FF01F095FB0020FE
:103060001CBD0000080000207461736B5F73746105
:1030700072740000313C000870B504461044C5B2BB
:103080001E462046FFF7C0F805E001213046FFF755
:10309000F7F8641CE4B2AC42F7D370BD2DE9F041FF
:1030A00016460F460546804600241CE03019FEF700
:1030B000BBFE002801DA641C15E0C2B2394628467E
:1030C000FFF7B8F8305D7F2803D91035EDB2A41CA6
:1030D00002E00835EDB2641C05F110007F2802D92A
:1030E000BF1C4546FFB2305D0028DFD1BDE8F0814E
:1030F0000FB430B5C1B00C46054647AA684646999C
:10310000FDF78AF9E1B2E8B26A46FFF7C7FF41B0BE
:1031100030BC5DF814FB000070B500240C600D4657
:103120004C6009A108E0FDF7BFFAFF2802D8285536
:10313000641CE4B204A10020FDF7C4FA08B1082C15
:10314000F1D3204670BD0000200000002DE9F041C1
:10315000184E0F460446F5683068001D01F0D6F899
:1031600038B9306890F82C100120884031698143CB
:103170003161601C07D137B13168BDE8F0410E48BC
:10318000091D01F00EB930682C44AC42446031682E
:1031900005D2B06BBDE8F041091D01F0EAB8706BD3
:1031A000091D01F0E6F8B06A844200D2B462BDE8BD
:1031B000F08100006C000020EC0400202DE9F041BB
:1031C000054601F0FBF82E4EB068401CB060306838
:1031D0002C4F10B1706938B32CE03560B06801280D
:1031E00028D1002404EB840007EB800001F0B3F841
:1031F000641C0A2CF6D32348C83001F0ACF82148EF
:10320000DC3001F0A8F81F48F03001F0A4F81E48A7
:1032100001F0A1F81C48143001F09DF81A483C3820
:1032200070631430B06305E03068E96AC06A8842B0
:1032300000D83560706A0121401C70622864E86A19
:10324000326981401143316100EB800007EB80005F
:10325000291D01F0A6F801F0D1F8706900280CD002
:103260003068E96AC06A884207D208494FF0805046
:103270000860BFF34F8FBFF36F8FBDE8F081000090
:103280006C000020D4030020D804002004ED00E0EE
:1032900010B501F093F80E4C2068A0B90D4801F06C
:1032A0005AF80C48143001F056F80A48E06014301F
:1032B0002061002210210A2001F076FB206010B16D
:1032C00005A101F019F9BDE8104001F097B8000020
:1032D000A800002000050020546D7251000000007D
:1032E00030B4026C0B46002A0BD0C1681144C16097
:1032F0004468A14201D30168C16030BC1846FDF7A3
:103300005BBA30BC70472DE9F041856B1746044627
:103310000026026C82B1C7B1E068FDF74DFAE168A2
:10332000206C091AE1602268914202D26168081A91
:10333000E060022F16D017E02068A8B9606801F09D
:10334000F5FE0646002060600EE0A068FDF734FA46
:10335000216CA0680844A0606168884204D320689A
:10336000A06001E005B16D1E6D1CA5633046BDE88F
:10337000F08110B50446006B01F054F82046BDE81A
:10338000104001F04FB8000010484FF48031420760
:1033900006D0C01D0D4920F00700411AC1F580314B
:1033A0000B4A00230144C2E900030839103A21F016
:1033B000070111604B600B600B1AC0E900139360AA
:1033C0004FF000405360D060704700002805002097
:1033D000CC000020144E154DA6F582774FF0805892
:1033E000DFF84C9011E000F0E9FFF068C468201DA0
:1033F00000F08CFFA868401EA8606868401E6860E6
:1034000000F0FCFF2046FFF7B4FF68680028EAD10F
:103410003868012805D9C9F80080BFF34F8FBFF382
:103420006F8F00F086FFF0E7D80400206C000020CA
:1034300004ED00E02DE9F0470E46DDE9098417466A
:10344000824691009946089DA522206BFDF7F9F967
:103450006FF00301206B01EB8701084420F00707A0
:10346000780707D0502080F31188BFF34F8FBFF348
:103470006F8FFEE72218315C82F83410315C11B195
:10348000401C0A28F6D3002684F83D600A2D00D39C
:103490000925E562C4E91256201D00F067FF04F11A
:1034A000180000F063FF2461C5F10A006462A061A6
:1034B000266584F854604A465146384600F082FA40
:1034C0002060B8F1000F01D0C8F80040BDE8F087D7
:1034D00030B5114900E011460A688242FBD34B68BF
:1034E0005C18844203D14068184448600846436829
:1034F0001C18944209D1084C103C2468A24209D0FF
:1035000052681A4442600A6812680260814200D020
:10351000086030BD0460F9E7CC00002070B50024DD
:1035200041600B4D0061914206D8D11A82699142E7
:1035300006D2011D286907E09A4203D2994201D3BD
:10354000012403E0011DE86800F013FF204670BD70
:10355000A800002010B5044600F030FFA06B20B199
:10356000002400F04BFF204610BD0124F9E773B59D
:1035700000260098846C5CB1A26BE06B82420FD392
:10358000502080F31188BFF34F8FBFF36F8FFEE79A
:10359000502080F31188BFF34F8FBFF36F8FFEE78A
:1035A000A26B82420CD294F945500A4669462046E5
:1035B000FFF7A9FE0646681C04D06D1C84F8455030
:1035C00030467CBD606A0028FAD004F1240001F086
:1035D00043FE0028F4D00126F2E7000030B587B0A2
:1035E0002E4D52E00198002806DADDE90301029A27
:1035F00090470198002848DB039C606910B1201DAA
:1036000000F084FE05A800F0B5F8024601980A28EB
:103610003BD2DFE800F00505053A263705053A26D6
:103620000298A169034601442046FFF777FF00B3E3
:10363000616A20468847E069012826D10020009071
:103640000298A169002342181946204601F0C6FEDF
:1036500078B9502080F31188BFF34F8FBFF36F8F7D
:10366000FEE70298A06128B1811813462046FFF7B3
:1036700055FF0AE0502080F31188BFF34F8FBFF34E
:103680006F8FFEE7204600F0CDFE002201A92868DA
:1036900001F01AFB0028A5D107B030BDA80000201A
:1036A0002DE9FC410E46054601F0A6F801A800F000
:1036B00061F80446019818B101F008FEBDE8FC81EC
:1036C000224FAEB138690068A8B30026291B3246E4
:1036D000386800F023FF01F0F9FD0028EED11C4905
:1036E0004FF080500860BFF34F8FBFF36F8FE5E757
:1036F000A542EBD801F0EAFDF8682646C068C46828
:10370000201D00F003FEE069012810D1A0692B46BE
:10371000411932462046FFF701FF40B10020034621
:10372000014600902A46204601F058FE20B1616A09
:1037300020468847C2E707E0502080F31188BFF396
:103740004F8FBFF36F8FFEE70126BFE7A800002071
:1037500004ED00E00648416B096829B1416BC96876
:10376000C9684968816270474FF0FF31FAE700008D
:103770006C00002070B5054601F072FC064E044650
:10378000B068844203D200F009F8012000E0002074
:1037900028602046B46070BDA8000020F8B5194E1E
:1037A0001FE0C068C4680568201D00F0AFFD616AB5
:1037B00020468847E069012813D1A0692844A8421F
:1037C00006D924616060211DF06800F0D2FD08E098
:1037D00000200346014600902A46204601F0FEFDE7
:1037E00038B1F06801680029DBD13169C6E90310FE
:1037F000F8BD502080F31188BFF34F8FBFF36F8F58
:10380000FEE70000A800002008484068401C4FF078
:10381000500080F3118804D0BFF34F8FBFF36F8F38
:10382000FEE7BFF34F8FBFF36F8FFEE7D40000209A
:10383000084CE068016839B1002139B10020FFF778
:103840002FFFFFF7CBFEF4E70121F6E7C068006821
:10385000F5E70000A80000202DE9F041044600F043
:10386000ADFD94F9455004F1240610E0A06C20B1A0
:1038700000212046FFF77BFE04E0606A48B1304635
:1038800001F0EAFC08B100F0EFFE6D1E6DB2002DF4
:10389000ECDC4FF0FF3684F8456000F0AFFD00F03F
:1038A0008DFD94F9445004F1100709E0206948B1F6
:1038B000384601F0D1FC08B100F0D6FE6D1E6DB2A5
:1038C000002DF3DC84F84460BDE8F04100F096BDC3
:1038D0002DE9F0410546002600F08EFF324F386892
:1038E00008B9FFF751FDF86805424BD1C5B308355B
:1038F00068070ED005F00700C0F10800054468070E
:1039000007D0502080F31188BFF34F8FBFF36F8F24
:10391000FEE72DB37868854234D823491031084634
:10392000046801E0214604466068A84202D220688B
:103930000028F7D13868844224D00E6820680860D7
:1039400060680836411B10290FD96019420708D05A
:10395000502080F31188BFF34F8FBFF36F8FFEE7C6
:1039600010E041606560FFF7B3FD61687868401A58
:103970007860BA68904200D2B860F86801430020CD
:10398000C4E9000101F0A2FC0EB900F0D3FC7007FD
:1039900007D0502080F31188BFF34F8FBFF36F8F94
:1039A000FEE73046BDE8F081BC000020044908680D
:1039B00018B10868C26C521CC264086870470000E5
:1039C0006C00002010B5031F4FF080741C601B1F9B
:1039D00021F001011960191F044B0B6014390A60B2
:1039E000091F6FF0020244380A6010BD0938000850
:1039F0001CB501211120FEF749FC00244FF4807012
:103A00008DF8044000908DF8074069460A48FEF79B
:103A100025FA01208DF804008DF806404020009022
:103A20008DF807408DF8054069460448FEF716FA00
:103A30000348C0F898421CBD00000240001002403C
:103A4000000042424FF4165000F050BB70B5C0B0B9
:103A500004464FF480716846FCF71DFF2046FCF7D2
:103A600041FE80B2FD22C11C8DF800200B0A8DF8AA
:103A700001308DF80210002101228DF804108DF81C
:103A8000032005216D46002205E0A35C6B54491C10
:103A9000521C89B292B28242F7D32A4608460023CA
:103AA00002E012F8014B6340401E80B2F9D26B5421
:103AB000491C8EB2002404E0285D00F059FB641C10
:103AC000A4B2B442F8D340B070BD4FF4FA742046AB
:103AD00000F046FDFBE70000134C4FF0FF35294690
:103AE000206A01F08DF9002110A20846FFF700FBC3
:103AF000237811A202210020FFF7FAFA637812A2BC
:103B000004210020FFF7F4FAA37813A20621002075
:103B1000FFF7EEFA00231A461946206A00F0B4FFB8
:103B2000C82000F01DFDDAE700000020CFEEC4BF82
:103B3000BBFAD0B5B1DB0000B6E6BBFA313A2025BE
:103B40006420B6C800000000B6E6BBFA323A202571
:103B50006420B6C800000000B6E6BBFA333A202560
:103B60006420B6C8000000000E4C21792078814204
:103B700003D0FEF761FC2078207161796078814282
:103B800003D0FEF76BFC60786071A179A078814268
:103B900003D0FEF775FCA078A071642000F0E0FC73
:103BA000E3E70000000000204FF496771A4C3846F7
:103BB00000F0D6FCE0780028F9D0FFF7EDF90546D3
:103BC000014616A0FCF73AFC4FF0FF31606A01F0A5
:103BD00017F96D1E1D2D18D81E2525700020607048
:103BE0004FF4C876A570304600F0BAFC4620A070AD
:103BF000304600F0B5FCA570304600F0B1FC5A200C
:103C00002070A070304600F0ABFC00231A46194625
:103C1000606A00F039FFCAE700000020BCECB2E2A5
:103C2000BEE0C0EB3A20256420636D0D0A00000061
:103C30007CB500242546FFF7E9F9012000F0A2FE3B
:103C4000364E3062012000F09DFE7062012000F0CF
:103C500099FEB062002220210A2000F0A5FEF06249
:103C6000FEF7F2F92E4E04EB840006EB80000021F3
:103C700040680090042320220846FEF702FA641CE4
:103C8000E4B20B2C00D90024FF230122072128468F
:103C9000FFF7F2F90A2000F063FC6D1CEDB2802DF5
:103CA000E1D3FEF7D1F91D49042014318501CDE996
:103CB000000100232A461BA11D4801F097F917496E
:103CC00003201031CDE9000100232A4619A11C4828
:103CD00001F08CF9114802240C30CDE9004000239A
:103CE0002A4618A11A4801F081F90C48002318301F
:103CF000CDE900402A4617A1194801F077F9074895
:103D000000231C30CDE900402A4616A1184801F0D6
:103D10006DF9BDE87C40002000F048BC00000020A8
:103D2000A85400087461736B5F6F6C6564000000D9
:103D3000D93A00087461736B5F7573617274000027
:103D4000753D00087461736B5F736572766F000078
:103D5000693B00087461736B5F737230340000005C
:103D6000A93B00087461736B5F656570726F6D00CD
:103D7000CB3A000888B020216846FCF78CFD9E4EA7
:103D8000B4274FF05A084FF000094FF0FF3BA6F15F
:103D9000380A5D465A4669465446DAF82C0000F067
:103DA00093FF0128F5D12946606A01F029F89DF8B2
:103DB0000000612845D018DC50287DD00CDC452857
:103DC00052D004DC41283CD0442876D12EE04C2847
:103DD00074D04F28F9D158E0513807286DD2DFE868
:103DE00000F0375A13BF50BF1E0064381428F5D2B4
:103DF000DFE800F01C3AB6B6B6B6B6B676B6B64B45
:103E0000A22E510AB647B6152078B42805D20A303A
:103E1000C0B22070B42800D92770217804E020783F
:103E200008B10A382070C1B274A0D7E06078B42815
:103E300005D20A30C0B26070B42800D967706178CA
:103E400004E0607808B10A386070C1B270A0C5E0C3
:103E5000A0785A2812D20A30C0B2A0705A280DD9C0
:103E6000404684F8028009E0A078142806D90A3870
:103E7000C0B2A070142801D21420A070C1B269A0F1
:103E8000ACE00120E0706CA002E084F8039071A027
:103E9000FCF7D4FAA4E000231A461946606A00F041
:103EA000F3FD2946A06A00F0ABFF0822524900202A
:103EB000FEF7ECFF002302E03EE051E010E01A467E
:103EC0001946A06A00F0E0FD69A0FCF7B7FA0024EB
:103ED0006DA0315DFCF7B2FA641C082CF8DB75E0CC
:103EE00000231A461946606A00F0CEFD2946A06AF2
:103EF00000F086FF032240490020FEF7C7FF0023A1
:103F00001A461946A06A00F0BFFD2946606A00F013
:103F100077FF3078207070786070B0780023A070E0
:103F20001A461946606A00F0AFFDA37862782178DE
:103F300056A0FCF783FA59E05FA0FFF787FD4FF426
:103F4000FA6000F00DFB1E20A0704FF4FA752846B1
:103F500000F006FB84F80280284600F001FB3FE0F9
:103F600023216846FCF7B4FBA0B323216846FCF785
:103F7000AFFB214980F8009008396846FFF7CCF87C
:103F800000231A461946606A00F07EFD2946A06AA1
:103F900000F036FF1849082208390020FEF714FF08
:103FA00000231A461946A06A00F06EFD0A2000F0B0
:103FB000D7FA45A0FCF742FA0F4D0024083D32A085
:103FC000295DFCF73BFA641C082CF8DB20A0FCF709
:103FD00035FA0BE0FFE79DF8001040A0FCF72EFA41
:103FE00000231A461946606A00F04EFD20216846FB
:103FF000FCF751FCCDE6000038000020B6E6BBFA25
:1040000031BDC7B6C83A202564B6C80D0A00000005
:10401000B6E6BBFA32BDC7B6C83A202564B6C80DAD
:104020000A000000B6E6BBFA33BDC7B6C83A202581
:1040300064B6C80D0A000000A1BEB3ACC9F9B2A8AD
:10404000D7D4B6AFBFD8D6C6D2D1BFAAC6F4A1BF07
:104050000D0A0000A1BEB3ACC9F9B2A8D7D4B6AF5F
:10406000BFD8D6C6D2D1B9D8B1D5A1BF0D0A0000EC
:10407000454550524F4DB6C1B3F638D7D6BDDACA12
:10408000FDBEDD3A2000000025642000CAD6B6AF90
:10409000BCD3D4D8454550524F4DBDC7B6C8CDEA64
:1040A000B3C93A2053313D25642053323D25642065
:1040B00053333D25640D0A00C0B4B8F8C9FABBEE0D
:1040C000B1C8B8F6D2AE0000454550524F4DD0B4FD
:1040D000C8EBB3C9B9A63A2000000000CEB4D6AAF6
:1040E000C3FCC1EE3A2025630D0A0000F0B5064678
:1040F000012187B00846FEF7C9F801214804FEF700
:10410000D1F802218DF814108DF8151000248DF8C7
:1041100016400120144F0C258DF81700049504A9B2
:104120003846FDF79BFE072202213846FDF7D2FEF6
:10413000072203213846FDF7CDFEADF80440ADF867
:104140000640ADF80840ADF80C40084C0096ADF8BC
:104150000A5069462046FEF74DFC01212046FEF735
:1041600001FC07B0F0BD0000000002400044004028
:1041700070B5074C054640212046FEF7FDFB0028A0
:10418000F9D029462046BDE87040FEF78DBC0000FE
:1041900000440040F0B5074687B001210220FEF739
:1041A00075F801218804FEF77DF8274E07220A21C1
:1041B0003046FDF78FFE07220B213046FDF78AFEC1
:1041C0004FF44060049002208DF814008DF8150023
:1041D00000248DF8164001258DF8175004A93046AB
:1041E000FDF73CFEADF80440ADF80640ADF80840E0
:1041F000ADF80C400C20154CADF80A00009769464C
:104200002046FEF7F7FB012240F225512046FEF73B
:10421000D9FB012240F224412046FEF7D3FB0121C5
:104220002046FEF79FFB27208DF8180005208DF80B
:10423000190003208DF81A008DF81B5006A8FDF711
:10424000C7FE07B0F0BD0000000402400048004077
:10425000F0B50746012187B00846FEF717F801219F
:104260001020FEF72BF8274E072209213046FDF7D4
:1042700031FE07220A213046FDF72CFE4FF4C060C4
:10428000049002208DF814008DF8150000248DF89C
:10429000164001258DF8175004A93046FDF7DEFDC4
:1042A000ADF80440ADF80640ADF80840ADF80C405C
:1042B0000C20154CADF80A00009769462046FEF721
:1042C00099FB012240F225512046FEF77BFB01229B
:1042D00040F224412046FEF775FB01212046FEF7FF
:1042E00041FB25208DF8180005208DF819000320CA
:1042F0008DF81A008DF81B5006A8FDF769FE07B06F
:10430000F0BD00000000024000100140D0E9013281
:1043100001699A60D0E901235A604A68824201D15A
:1043200082684A60002202610868401E08600868CE
:1043300070477047502080F31188BFF34F8FBFF351
:104340006F8FFEE7502080F31188BFF34F8FBFF3CC
:104350006F8FFEE7704700F108014FF0FF32C0E9B0
:104360000112C160016100210160704700210161FB
:10437000704730B50C68621C02D000F1080202E000
:10438000026904E01A4653681D68A542FAD95368C9
:104390004B6099608A60516008610168491C016046
:1043A00030BD42684A6093688B6093685960916041
:1043B00008610168491C016070470000502080F3CB
:1043C0001188BFF34F8FBFF36F8F0A494868401CB5
:1043D000486001280CD10848006810F0FF0F07D092
:1043E000502080F31188BFF34F8FBFF36F8FFEE72C
:1043F00070470000D400002004ED00E00849486840
:1044000028B1401E486001D180F3118870475020C8
:1044100080F31188BFF34F8FBFF36F8FFEE700006B
:10442000D400002070B5002827D0144DA0F1080456
:104430006068E968084207D1502080F31188BFF313
:104440004F8FBFF36F8FFEE722683AB1502080F3A1
:104450001188BFF34F8FBFF36F8FFEE78843606013
:1044600000F0CAF960686968084468602046FFF790
:104470002FF8BDE8704000F029BF70BDBC000020DF
:104480004FF0E02000210161816105494FF47A720B
:104490000968B1FBF2F1491E4161072101617047D2
:1044A0004000002010B5FBF791FF114910280ED3F2
:1044B00000F1E02090F8F0030A78904207D25020F3
:1044C00080F31188BFF34F8FBFF36F8FFEE709486A
:1044D0000068896800F4E060884207D9502080F3C2
:1044E0001188BFF34F8FBFF36F8FFEE710BD000041
:1044F000D40000200CED00E010B5074B002253F86B
:1045000032401CB1521C082AF9D310BD43F83210B6
:1045100003EBC201486010BD9403002070B515463E
:104520000E460446FFF74AFF94F944100020491C48
:1045300001D184F8440094F94510491C01D184F854
:104540004500FFF75BFFA06B28B92A46314604F10E
:10455000240000F0A7F82046BDE87040FFF77CB9C2
:1045600010B5020014D00F48006B38B1502080F312
:104570001188BFF34F8FBFF36F8FFEE700F03CF958
:1045800000211046FEF7E2FD00F0A0FE002807D152
:1045900005494FF080500860BFF34F8FBFF36F8F16
:1045A00010BD00006C00002004ED00E070B5044672
:1045B000FFF704FF244D04B92C68201DFFF7A6FE69
:1045C00058B9E06A214A00EB800152F8211021B964
:1045D00001218140286988432861A06A18B104F14B
:1045E0001800FFF793FE686A401C686228688442DE
:1045F00007D1211D1648FFF7D4FE6868401C68608B
:1046000007E0A868401EA8602046FEF7B2FEFFF74C
:10461000A1F8FFF7F3FE6869002814D028688442E7
:1046200011D1286B38B1502080F31188BFF34F8F20
:10463000BFF36F8FFEE707494FF080500860BFF36C
:104640004F8FBFF36F8F70BD6C000020D40300202C
:10465000D804002004ED00E002490A6A0260C9683B
:10466000416070476C00002001490120C86170471B
:104670006C00002010B50C4650B10949096818318A
:10468000FFF777FE2046BDE810400121FEF75EBD32
:10469000502080F31188BFF34F8FBFF36F8FFEE779
:1046A0006C00002070B514460D4668B10A490968CF
:1046B0001831FFF776FE0CB14FF0FF352146284642
:1046C000BDE87040FEF742BD502080F31188BFF373
:1046D0004F8FBFF36F8FFEE76C00002070B50B4665
:1046E00004004BD0E26CA2B1A16C994200D21946F1
:1046F000E06A884242D0012A40D1214D2A68944282
:104700000FD1502080F31188BFF34F8FBFF36F8F0D
:10471000FEE7502080F31188BFF34F8FBFF36F8FF8
:10472000FEE7E162A269002A02DBC1F10A01A16190
:10473000144E00EB8000616906EB800081421DD1C0
:10474000201DFFF7E3FD012150B9E06A00EB800274
:1047500056F8222022B901FA00F228699043286114
:10476000E06A2A6981401143296100EB800006EB71
:104770008000211DBDE87040FFF713BE70BD000032
:104780006C000020D40300201CB517480024CDE99C
:1047900000402346822215A1164800F027FC01287C
:1047A00003D100F0F5FD012809D0401C1AD150209A
:1047B00080F31188BFF34F8FBFF36F8FFEE7502058
:1047C00080F31188BFF34F8FBFF36F8F06484FF010
:1047D000FF312C38816201214161C460BDE81C4079
:1047E00000F056B81CBD00009800002049444C451C
:1047F00000000000D53300080248016B491C01632A
:10480000704700006C00002010B51F4C206B10B1E9
:104810000120E06110BD0020E06120684FF0A5326A
:10482000006B0168914208D14168914205D18168CD
:10483000914202D1C068904204D02168206834318E
:10484000FFF780FD20691149B0FA80F0C0F11F0028
:1048500000EB800051F820206AB101EB800000F1EC
:104860000802416849684160914201D1496841604C
:10487000C868206010BD502080F31188BFF34F8FAF
:10488000BFF36F8FFEE700006C000020D403002010
:104890001CB537480168374A914207D1502080F350
:1048A0001188BFF34F8FBFF36F8FFEE70068314968
:1048B000491E884207D1502080F31188BFF34F8FE3
:1048C000BFF36F8FFEE72C4908780190FF20087036
:1048D00008788DF800009DF800009DF8002000F099
:1048E000F000904207D0502080F31188BFF34F8F23
:1048F000BFF36F8FFEE79DF80000204B00F05000E3
:1049000018700720986006E0401E98609DF800002F
:1049100040008DF800009DF8000000069868F3D470
:10492000032807D0502080F31188BFF34F8FBFF3C7
:104930006F8FFEE74FF440709860019808700C4844
:104940002030016841F470010160016841F070415C
:104950000160FFF795FD00205860FBF7FFFC084859
:10496000016841F040410160FBF7E4FC00201CBD00
:1049700000ED00E071C20F4100E400E0D40000202F
:1049800034EF00E010B502460021012000F00CF8E1
:10499000041E07D00021416001600B460A46C16039
:1049A00000F072F8204610BD2DE9F04117460E4682
:1049B000050018D0FEB105FB06F05430FEF788FF65
:1049C00004000ED004F15400BEB12060C4E90F56BB
:1049D0002046012100F014F884F850700021204690
:1049E000A164BDE8F081502080F31188BFF34F8FA0
:1049F000BFF36F8FFEE70020DFE72460E6E70000EB
:104A000070B50D46040025D0FFF7D8FCD4E90F207F
:104A1000216802FB001161600021A1632168A1608F
:104A20000A46D4E90F01401E00FB0121E160214646
:104A30004FF0FF3001F8440F487004F110008DB1C1
:104A4000FFF789FC04F12400FFF785FCFFF7D6FC93
:104A5000012070BD502080F31188BFF34F8FBFF34A
:104A60006F8FFEE721690029F0D000F0F5FB0028E8
:104A7000ECD004494FF080500860BFF34F8FBFF374
:104A80006F8FE3E704ED00E02DE9FF4F83B0994617
:104A90008B4604004FF0000603D0BBF1000F08D096
:104AA00011E0502080F31188BFF34F8FBFF36F8F59
:104AB000FEE7206C38B1502080F31188BFF34F8F90
:104AC000BFF36F8FFEE7B9F1020F0AD1E06B012847
:104AD00007D0502080F31188BFF34F8FBFF36F8F43
:104AE000FEE700F0AFFADFF810814FF0000A4FF058
:104AF000805748B9059838B1502080F31188BFF32A
:104B00004F8FBFF36F8FFEE7FFF758FCA06BE16B91
:104B1000884206D3B9F1020F03D0059800B316B34B
:104B200025E04A4659462046FEF7EDFBA16C21B12F
:104B300049462046FEF71BFD05E0616A19B104F104
:104B4000240000F089FB28B1C8F80070BFF34F8F34
:104B5000BFF36F8FFFF752FC012007B0BDE8F08F65
:104B6000FFF74CFC21E06846FFF776FD0126FFF7D2
:104B700045FCFFF741FEFFF721FC94F94400401C7F
:104B800001D184F844A094F94500401C01D184F877
:104B900045A0FFF733FC05A9684600F0EDF930B1F8
:104BA0002046FEF759FE00F091FB0020D5E7FFF705
:104BB00005FCA06BE16B884201D1012500E00025D6
:104BC000FFF71CFC95B104F110000599FFF752FDA9
:104BD0002046FEF741FE00F079FB002894D1C8F88A
:104BE0000070BFF34F8FBFF36F8F8DE72046FEF746
:104BF00033FE00F06BFB87E704ED00E02DE9F047A2
:104C0000984615468946040003D0B9F1000F08D034
:104C100011E0502080F31188BFF34F8FBFF36F8FE7
:104C2000FEE7206C38B1502080F31188BFF34F8F1E
:104C3000BFF36F8FFEE7B8F1020F0AD1E06B0128D6
:104C400007D0502080F31188BFF34F8FBFF36F8FD1
:104C5000FEE7FFF727FC5020EFF3118780F3118860
:104C6000BFF34F8FBFF36F8FA06BE16B884207D309
:104C7000B8F1020F04D0002087F31188BDE8F08757
:104C800094F94560424649462046FEF73CFB701CBD
:104C900004D0761C84F845600120EDE7A06C012665
:104CA00020B141462046FEF762FC06E0606A00281B
:104CB000F2D004F1240000F0CFFA0028ECD0002D4F
:104CC000EAD02E60E8E700002DE9F74783B08A4676
:104CD00004004FF0000603D0BAF1000F08D011E035
:104CE000502080F31188BFF34F8FBFF36F8FFEE723
:104CF000206C38B1502080F31188BFF34F8FBFF381
:104D00006F8FFEE700F09EF9DFF8F09000274FF07C
:104D1000805848B9059838B1502080F31188BFF306
:104D20004F8FBFF36F8FFEE7FFF748FBA56BC5B151
:104D300051462046FEF7D4FA6D1EA563206950B196
:104D400004F1100000F088FA28B1C9F80080BFF320
:104D50004F8FBFF36F8FFFF751FB012006B0BDE807
:104D6000F087059808B11EB106E0FFF747FB27E082
:104D70006846FFF771FC0126FFF740FBFFF73CFD9B
:104D8000FFF71CFB94F94400401C01D184F84470E7
:104D900094F94500401C01D184F84570FFF72EFBC3
:104DA00005A9684600F0E8F8002820460AD0FEF77A
:104DB00053FD00F08BFA2046FEF7CCFB0028B3D061
:104DC0000020CBE7FEF7C6FB90B104F12400059963
:104DD000FFF750FC2046FEF73FFD00F077FA002871
:104DE000A2D1C9F80080BFF34F8FBFF36F8F9BE74D
:104DF0002046FEF731FD00F069FA95E704ED00E08A
:104E00002DE9F3434FF0000583B004002E4609D08E
:104E1000206C78B1502080F31188BFF34F8FBFF31F
:104E20006F8FFEE7502080F31188BFF34F8FBFF3E1
:104E30006F8FFEE700F006F9DFF8389100274FF09A
:104E4000805848B9049838B1502080F31188BFF3D6
:104E50004F8FBFF36F8FFEE7FFF7B0FAA06BC8B1BB
:104E6000401EA063206810B9FEF7A0FD60602069B5
:104E700050B104F1100000F0EFF928B1C9F800803A
:104E8000BFF34F8FBFF36F8FFFF7B8FA012005B064
:104E9000BDE8F083049808B165B10FE03EB1502041
:104EA00080F31188BFF34F8FBFF36F8FFEE7FFF7DB
:104EB000A5FA5DE06846FFF7CFFB0125FFF79EFAF4
:104EC000FFF79AFCFFF77AFA94F94400401C01D1ED
:104ED00084F8447094F94500401C01D184F8457071
:104EE000FFF78CFA04A9684600F046F8002820462F
:104EF00012D0FEF7B1FC00F0E9F92046FEF72AFBDC
:104F00000028A9D09EB3FFF759FA606A50B3206B0E
:104F10000068C0F10A0126E0FEF71CFBE0B1206842
:104F200038B9FFF74BFA606800F04CF90646FFF716
:104F300065FA04F124000499FFF79CFB2046FEF774
:104F40008BFC00F0C3F9002886D1C9F80080BFF3BC
:104F50004F8FBFF36F8F7FE72046FEF77DFC00F099
:104F6000B5F979E700216068FFF7B8FB9FE7FFE735
:104F700000208CE704ED00E02DE9F0410C4605002F
:104F800011D0C4B1FFF71AFA174EF1686B682268A6
:104F9000C81A571C17D02F68366AB74219D08B42EF
:104FA00017D8012410E0502080F31188BFF34F8FF1
:104FB000BFF36F8FFEE7502080F31188BFF34F8F50
:104FC000BFF36F8FFEE70024FFF718FA2046BDE815
:104FD000F081824205D9101A20602846FFF73CFB79
:104FE000F1E700202060DCE76C0000202DE9FF5F86
:104FF0008346DDE90E87994616468A469000FEF7FD
:1050000067FC05001AD05820FEF762FC040012D09D
:1050100025630021CDE90241CDE900874B463246A8
:1050200051465846FEF706FA2046FEF7C7F801201B
:1050300004B0BDE8F09F2846FFF7F4F94FF0FF30C9
:10504000F6E700000548416919B1006B18B100206E
:105050007047012070470220704700006C0000205C
:105060000148C068704700006C0000202DE9F04145
:105070002C4E0027306B18B1B069401CB06148E07D
:10508000F5686D1CF56013D1706B006838B1502065
:1050900080F31188BFF34F8FBFF36F8FFEE7706B04
:1050A000B16B7163B063306A401C3062FEF752FB33
:1050B000B06A854209D3706B006848B1706BC068F4
:1050C000C4686068854206D2B062B06908B322E065
:1050D0004FF0FF30F8E7201DFFF718F9A06A18B16C
:1050E00004F11800FFF712F9E06A012132698140EA
:1050F000114331610C4900EB800001EB8000211D60
:10510000FFF74FF9E06A3168C96A8842D3D30127B3
:10511000D1E7FFF71FF9F06900B101273846BDE874
:10512000F08100006C000020D403002070B5040062
:105130004FF0000041D0214D29688C4207D050200B
:1051400080F31188BFF34F8FBFF36F8FFEE7E16CE1
:1051500071B1491EE164A36CE26A9A422DD0002924
:105160002BD1201DFFF7D2F81549012240B112E0E2
:10517000502080F31188BFF34F8FBFF36F8FFEE78E
:10518000E06A00EB800351F8233023B92B6902FA5F
:1051900000F083432B61A06CE062C0F10A00A061C3
:1051A000E06A2B6982401A432A6100EB800001EB20
:1051B0008000211DFFF7F5F8012070BD6C00002074
:1051C000D403002070B504004FF0000039D0204D0A
:1051D000E16A2A68D26A914234D2A069002804DBCD
:1051E0002868C06AC0F10A00A061E06A194E00EBAD
:1051F0008000616906EB800081421ED1201DFFF70F
:1052000085F8012150B9E06A00EB800256F82220AF
:1052100022B92A6901FA00F082432A612868C06A2B
:10522000E0622A6981401143296100EB800006EBAE
:105230008000211DFFF7B5F802E02868C06AE0622F
:10524000012070BDA16C2A68D26A9142F8D370BD6A
:105250006C000020D40300202DE9F041C068C46830
:10526000ACB104F118000746FFF750F8154D286B54
:105270000126A0B139461448FFF793F8E06A29687F
:10528000C96A88421CD90120EE61BDE8F081502036
:1052900080F31188BFF34F8FBFF36F8FFEE7201DA0
:1052A000FFF734F8E06A2A6906FA00F11143296130
:1052B000054900EB8000F03901EB8000211DDBE7A0
:1052C0000020E2E76C000020C40400202DE9F04734
:1052D0002C4D00242746286B38B1FFF76FF8286B58
:1052E000401E2863286B40B146E0502080F31188AF
:1052F000BFF34F8FBFF36F8FFEE7A86822490126E7
:10530000D0B3A1F1F0098846D8F80010E9B1D8F877
:105310000C00C46804F11800FEF7F8FF201DFEF72A
:10532000F5FFE06A2A6906FA00F11143296100EBF2
:10533000800109EB8100211DFFF733F8E06A29683D
:10534000C96A8842E0D3EE61DEE70CB1FEF702FAEB
:10535000AC693CB1FFF78AFE00B1EE61641EF9D181
:105360000020A861E86938B10849012738070860BA
:10537000BFF34F8FBFF36F8FFFF740F83846BDE89C
:10538000F08700006C000020C404002004ED00E061
:105390001CB5FDF77DFF0D48006868B10B49022080
:1053A000091DCDE9000100234FF4827208A10A48CB
:1053B000FFF71CFE002807D1502080F31188BFF3AF
:1053C0004F8FBFF36F8FFEE71CBD0000A8000020C9
:1053D000546D722053766300313800082DE9FF4187
:1053E0001F4603000A9E4FF0000015D0134D2C6895
:1053F000002C0ED08DE80E00062917DAFFF722FEEA
:1054000002284FF000030FD0002269462868FFF7FA
:105410003BFB04B0BDE8F081502080F31188BFF35E
:105420004F8FBFF36F8FFEE73246EEE700233A4619
:1054300069462046FFF7E2FBEBE70000A8000020EA
:1054400010B500290AD00878002807D0054878440C
:10545000FCF7E0F8002801D0002010BD0248784495
:1054600010BD0000BE1E0000B61E000010B50029D1
:105470000AD00878002807D005487844FCF7CAF815
:10548000002801D0002010BD0248784410BD000063
:10549000A21F00009A1F00004FF04070E1EE100ABA
:1054A0007047FBF7E7BD00000070000818690008AE
:1054B0002000000020000000800000001C70000898
:1054C0009869000820000000200000008000000013
:1054D00028700008186A0008200000002000000062
:1054E0008000000034700008986A00082000000066
:1054F000200000008000000040700008186B0008C9
:105500002000000020000000800000004C70000817
:10551000986B0008200000002000000080000000C0
:1055200058700008186C00082000000020000000DF
:105530008000000064700008986C000820000000E3
:10554000200000008000000070700008186D000846
:105550002000000020000000800000007C70000897
:10556000986D00082000000020000000800000006E
:10557000F06F0008186E00082000000020000000F6
:10558000800000000C700008986E000820000000E9
:10559000200000008000000000000000000000006B
:1055A00000000000000000000000000000000000FB
:1055B0000000000000000000000000F800000000F3
:1055C00000000000000000000000001B00000000C0
:1055D000000000000000000000100C120C0200008F
:1055E00000000000000000000000000000000000BB
:1055F00000000000000000000020E03820E038003B
:10560000000000000000000000021F02021F020054
:10561000000000000000000000304888FC08300056
:105620000000000000000000000C10107F110E00B0
:105630000000000000000000F008F080609800000A
:105640000000000000000000001906010F100F000C
:10565000000000000000000000F08848308080005A
:1056600000000000000000000F10131408171008BD
:10567000000000000000000000120E00000000000A
:10568000000000000000000000000000000000001A
:105690000000000000000000000000E0180402000C
:1056A0000000000000000000000000030C102000BB
:1056B0000000000000000000020418E000000000EC
:1056C000000000000000000020100C03000000009B
:1056D0000000000000000000404080F080404000DA
:1056E00000000000000000000202010F01020200A1
:1056F000000000000000000000808080F0808080BA
:105700000000000000000000000000000700000092
:105710000000000000000000000000000000000089
:1057200000000000000000000048380000000000F9
:1057300000000000000000008080808080808000E9
:105740000000000000000000000000000000000059
:105750000000000000000000000000000000000049
:105760000000000000000000001818000000000009
:10577000000000000000000000000080601C02002B
:10578000000000000000000000300C0300000000DA
:10579000000000000000000000E010080810E00019
:1057A00000000000000000000007081010080700BB
:1057B0000000000000000000001010F800000000D1
:1057C00000000000000000000010101F101000007A
:1057D0000000000000000000003008080888700089
:1057E0000000000000000000001814121110180042
:1057F00000000000000000000030088888483000E9
:105800000000000000000000000C101010110E003D
:1058100000000000000000000000804030F80000A0
:10582000000000000000000000030212121F12021C
:10583000000000000000000000F8484848488800C8
:105840000000000000000000000C101010100F00FD
:10585000000000000000000000E090484850800078
:1058600000000000000000000007081010100F00EA
:10587000000000000000000000180808C8281800F8
:1058800000000000000000000000001E01000000F9
:105890000000000000000000007088888888700008
:1058A0000000000000000000000E111010110E009A
:1058B000000000000000000000F008080890E00070
:1058C000000000000000000000000911110807009E
:1058D0000000000000000000000000C0C000000048
:1058E0000000000000000000000000181800000088
:1058F0000000000000000000000000400000000068
:105900000000000000000000000000700000000027
:10591000000000000000000000804020100800008F
:105920000000000000000000000102040810000058
:1059300000000000000000004040404040404000A7
:105940000000000000000000020202020202020049
:10595000000000000000000000000810204080004F
:105960000000000000000000000010080402010018
:1059700000000000000000000070080808887000A7
:105980000000000000000000000000181B000000E4
:105990000000000000000000E010C828E810E0004F
:1059A00000000000000000000708131417140B008B
:1059B00000000000000000000000E018E00000000F
:1059C0000000000000000000101E1302131E100053
:1059D000000000000000000008F8888888483000B7
:1059E0000000000000000000101F101010110E0039
:1059F0000000000000000000E0100808080838005F
:105A0000000000000000000007081010100804004B
:105A1000000000000000000008F808080810E0007E
:105A20000000000000000000101F10101008070008
:105A3000000000000000000008F88888E808100056
:105A40000000000000000000101F101013100800DC
:105A5000000000000000000008F88888E808100036
:105A60000000000000000000101F100003000000F4
:105A70000000000000000000E010080808380000E6
:105A8000000000000000000007081010120E0200C5
:105A9000000000000000000008F8888088F8080076
:105AA0000000000000000000101F1000101F100078
:105AB0000000000000000000000808F808080000CE
:105AC00000000000000000000010101F1010000077
:105AD000000000000000000000000808F8080800AE
